{
  "contractName": "WhiteList",
  "abi": [
    {
      "inputs": [],
      "payable": false,
      "stateMutability": "nonpayable",
      "type": "constructor"
    },
    {
      "anonymous": false,
      "inputs": [
        {
          "indexed": false,
          "internalType": "address",
          "name": "nodeAddress",
          "type": "address"
        },
        {
          "indexed": false,
          "internalType": "string",
          "name": "description",
          "type": "string"
        }
      ],
      "name": "newRequestAdded",
      "type": "event"
    },
    {
      "constant": true,
      "inputs": [
        {
          "internalType": "uint256",
          "name": "",
          "type": "uint256"
        }
      ],
      "name": "signersList",
      "outputs": [
        {
          "internalType": "address",
          "name": "signer",
          "type": "address"
        }
      ],
      "payable": false,
      "stateMutability": "view",
      "type": "function"
    },
    {
      "constant": true,
      "inputs": [
        {
          "internalType": "uint256",
          "name": "",
          "type": "uint256"
        }
      ],
      "name": "whitelist",
      "outputs": [
        {
          "internalType": "address",
          "name": "node",
          "type": "address"
        },
        {
          "internalType": "string",
          "name": "description",
          "type": "string"
        }
      ],
      "payable": false,
      "stateMutability": "view",
      "type": "function"
    },
    {
      "constant": false,
      "inputs": [
        {
          "internalType": "address",
          "name": "_address",
          "type": "address"
        },
        {
          "internalType": "string",
          "name": "_description",
          "type": "string"
        }
      ],
      "name": "addNode",
      "outputs": [],
      "payable": false,
      "stateMutability": "nonpayable",
      "type": "function"
    },
    {
      "constant": true,
      "inputs": [],
      "name": "getWhiteListLength",
      "outputs": [
        {
          "internalType": "uint256",
          "name": "",
          "type": "uint256"
        }
      ],
      "payable": false,
      "stateMutability": "view",
      "type": "function"
    },
    {
      "constant": true,
      "inputs": [
        {
          "internalType": "uint256",
          "name": "i",
          "type": "uint256"
        }
      ],
      "name": "getWhiteNode",
      "outputs": [
        {
          "internalType": "address",
          "name": "",
          "type": "address"
        },
        {
          "internalType": "string",
          "name": "",
          "type": "string"
        }
      ],
      "payable": false,
      "stateMutability": "view",
      "type": "function"
    },
    {
      "constant": false,
      "inputs": [
        {
          "internalType": "address",
          "name": "_address",
          "type": "address"
        }
      ],
      "name": "addSigner",
      "outputs": [],
      "payable": false,
      "stateMutability": "nonpayable",
      "type": "function"
    },
    {
      "constant": false,
      "inputs": [
        {
          "internalType": "address",
          "name": "_address",
          "type": "address"
        },
        {
          "internalType": "string",
          "name": "_vote",
          "type": "string"
        }
      ],
      "name": "vote",
      "outputs": [],
      "payable": false,
      "stateMutability": "nonpayable",
      "type": "function"
    },
    {
      "constant": true,
      "inputs": [
        {
          "internalType": "uint256",
          "name": "i",
          "type": "uint256"
        }
      ],
      "name": "getVotedNode",
      "outputs": [
        {
          "internalType": "address",
          "name": "",
          "type": "address"
        },
        {
          "internalType": "string",
          "name": "",
          "type": "string"
        }
      ],
      "payable": false,
      "stateMutability": "view",
      "type": "function"
    },
    {
      "constant": true,
      "inputs": [],
      "name": "getVotedListLength",
      "outputs": [
        {
          "internalType": "uint256",
          "name": "",
          "type": "uint256"
        }
      ],
      "payable": false,
      "stateMutability": "view",
      "type": "function"
    }
  ],
  "bytecode": "0x608060405234801561001057600080fd5b50336000806101000a81548173ffffffffffffffffffffffffffffffffffffffff021916908373ffffffffffffffffffffffffffffffffffffffff160217905550611719806100606000396000f3fe608060405234801561001057600080fd5b50600436106100935760003560e01c8063bb72ce4211610066578063bb72ce4214610402578063e320f98c14610420578063eb12d61e1461043e578063ec40ade614610482578063ee95842d146104f057610093565b806307c973b1146100985780631bf533a4146101735780634809dd491461024e5780637ebd1b3014610328575b600080fd5b610171600480360360408110156100ae57600080fd5b81019080803573ffffffffffffffffffffffffffffffffffffffff169060200190929190803590602001906401000000008111156100eb57600080fd5b8201836020820111156100fd57600080fd5b8035906020019184600183028401116401000000008311171561011f57600080fd5b91908080601f016020809104026020016040519081016040528093929190818152602001838380828437600081840152601f19601f8201169050808301925050505050505091929192905050506105ca565b005b61024c6004803603604081101561018957600080fd5b81019080803573ffffffffffffffffffffffffffffffffffffffff169060200190929190803590602001906401000000008111156101c657600080fd5b8201836020820111156101d857600080fd5b803590602001918460018302840111640100000000831117156101fa57600080fd5b91908080601f016020809104026020016040519081016040528093929190818152602001838380828437600081840152601f19601f8201169050808301925050505050505091929192905050506108cd565b005b61027a6004803603602081101561026457600080fd5b8101908080359060200190929190505050610ae7565b604051808373ffffffffffffffffffffffffffffffffffffffff1673ffffffffffffffffffffffffffffffffffffffff16815260200180602001828103825283818151815260200191508051906020019080838360005b838110156102ec5780820151818401526020810190506102d1565b50505050905090810190601f1680156103195780820380516001836020036101000a031916815260200191505b50935050505060405180910390f35b6103546004803603602081101561033e57600080fd5b8101908080359060200190929190505050610d50565b604051808373ffffffffffffffffffffffffffffffffffffffff1673ffffffffffffffffffffffffffffffffffffffff16815260200180602001828103825283818151815260200191508051906020019080838360005b838110156103c65780820151818401526020810190506103ab565b50505050905090810190601f1680156103f35780820380516001836020036101000a031916815260200191505b50935050505060405180910390f35b61040a610e39565b6040518082815260200191505060405180910390f35b610428610e46565b6040518082815260200191505060405180910390f35b6104806004803603602081101561045457600080fd5b81019080803573ffffffffffffffffffffffffffffffffffffffff169060200190929190505050610f84565b005b6104ae6004803603602081101561049857600080fd5b81019080803590602001909291905050506111fd565b604051808273ffffffffffffffffffffffffffffffffffffffff1673ffffffffffffffffffffffffffffffffffffffff16815260200191505060405180910390f35b61051c6004803603602081101561050657600080fd5b8101908080359060200190929190505050611248565b604051808373ffffffffffffffffffffffffffffffffffffffff1673ffffffffffffffffffffffffffffffffffffffff16815260200180602001828103825283818151815260200191508051906020019080838360005b8381101561058e578082015181840152602081019050610573565b50505050905090810190601f1680156105bb5780820380516001836020036101000a031916815260200191505b50935050505060405180910390f35b6000809054906101000a900473ffffffffffffffffffffffffffffffffffffffff1673ffffffffffffffffffffffffffffffffffffffff163373ffffffffffffffffffffffffffffffffffffffff161461062357600080fd5b81600160008473ffffffffffffffffffffffffffffffffffffffff1673ffffffffffffffffffffffffffffffffffffffff16815260200190815260200160002060000160006101000a81548173ffffffffffffffffffffffffffffffffffffffff021916908373ffffffffffffffffffffffffffffffffffffffff16021790555080600160008473ffffffffffffffffffffffffffffffffffffffff1673ffffffffffffffffffffffffffffffffffffffff16815260200190815260200160002060010190805190602001906106fa92919061143f565b506002600160008473ffffffffffffffffffffffffffffffffffffffff1673ffffffffffffffffffffffffffffffffffffffff168152602001908152602001600020908060018154018082558091505090600182039060005260206000209060020201600090919290919091506000820160009054906101000a900473ffffffffffffffffffffffffffffffffffffffff168160000160006101000a81548173ffffffffffffffffffffffffffffffffffffffff021916908373ffffffffffffffffffffffffffffffffffffffff160217905550600182018160010190805460018160011615610100020316600290046107f59291906114bf565b505050507fadf53d4a4417ed3919f7799eb75b9fff3f57a7e3df6b662cef2dbc28810f05038282604051808373ffffffffffffffffffffffffffffffffffffffff1673ffffffffffffffffffffffffffffffffffffffff16815260200180602001828103825283818151815260200191508051906020019080838360005b8381101561088e578082015181840152602081019050610873565b50505050905090810190601f1680156108bb5780820380516001836020036101000a031916815260200191505b50935050505060405180910390a15050565b3373ffffffffffffffffffffffffffffffffffffffff16600360003373ffffffffffffffffffffffffffffffffffffffff1673ffffffffffffffffffffffffffffffffffffffff16815260200190815260200160002060000160009054906101000a900473ffffffffffffffffffffffffffffffffffffffff1673ffffffffffffffffffffffffffffffffffffffff1614806109b557506000809054906101000a900473ffffffffffffffffffffffffffffffffffffffff1673ffffffffffffffffffffffffffffffffffffffff163373ffffffffffffffffffffffffffffffffffffffff16145b6109be57600080fd5b600360003373ffffffffffffffffffffffffffffffffffffffff1673ffffffffffffffffffffffffffffffffffffffff1681526020019081526020016000206001018290806001815401808255809150509060018203906000526020600020016000909192909190916101000a81548173ffffffffffffffffffffffffffffffffffffffff021916908373ffffffffffffffffffffffffffffffffffffffff16021790555050600360003373ffffffffffffffffffffffffffffffffffffffff1673ffffffffffffffffffffffffffffffffffffffff168152602001908152602001600020600201819080600181540180825580915050906001820390600052602060002001600090919290919091509080519060200190610ae192919061143f565b50505050565b600060603373ffffffffffffffffffffffffffffffffffffffff16600360003373ffffffffffffffffffffffffffffffffffffffff1673ffffffffffffffffffffffffffffffffffffffff16815260200190815260200160002060000160009054906101000a900473ffffffffffffffffffffffffffffffffffffffff1673ffffffffffffffffffffffffffffffffffffffff161480610bd357506000809054906101000a900473ffffffffffffffffffffffffffffffffffffffff1673ffffffffffffffffffffffffffffffffffffffff163373ffffffffffffffffffffffffffffffffffffffff16145b610bdc57600080fd5b600360003373ffffffffffffffffffffffffffffffffffffffff1673ffffffffffffffffffffffffffffffffffffffff1681526020019081526020016000206001018381548110610c2957fe5b9060005260206000200160009054906101000a900473ffffffffffffffffffffffffffffffffffffffff16600360003373ffffffffffffffffffffffffffffffffffffffff1673ffffffffffffffffffffffffffffffffffffffff1681526020019081526020016000206002018481548110610ca157fe5b90600052602060002001808054600181600116156101000203166002900480601f016020809104026020016040519081016040528092919081815260200182805460018160011615610100020316600290048015610d405780601f10610d1557610100808354040283529160200191610d40565b820191906000526020600020905b815481529060010190602001808311610d2357829003601f168201915b5050505050905091509150915091565b60028181548110610d5d57fe5b90600052602060002090600202016000915090508060000160009054906101000a900473ffffffffffffffffffffffffffffffffffffffff1690806001018054600181600116156101000203166002900480601f016020809104026020016040519081016040528092919081815260200182805460018160011615610100020316600290048015610e2f5780601f10610e0457610100808354040283529160200191610e2f565b820191906000526020600020905b815481529060010190602001808311610e1257829003601f168201915b5050505050905082565b6000600280549050905090565b60003373ffffffffffffffffffffffffffffffffffffffff16600360003373ffffffffffffffffffffffffffffffffffffffff1673ffffffffffffffffffffffffffffffffffffffff16815260200190815260200160002060000160009054906101000a900473ffffffffffffffffffffffffffffffffffffffff1673ffffffffffffffffffffffffffffffffffffffff161480610f3057506000809054906101000a900473ffffffffffffffffffffffffffffffffffffffff1673ffffffffffffffffffffffffffffffffffffffff163373ffffffffffffffffffffffffffffffffffffffff16145b610f3957600080fd5b600360003373ffffffffffffffffffffffffffffffffffffffff1673ffffffffffffffffffffffffffffffffffffffff16815260200190815260200160002060010180549050905090565b3373ffffffffffffffffffffffffffffffffffffffff16600360003373ffffffffffffffffffffffffffffffffffffffff1673ffffffffffffffffffffffffffffffffffffffff16815260200190815260200160002060000160009054906101000a900473ffffffffffffffffffffffffffffffffffffffff1673ffffffffffffffffffffffffffffffffffffffff16148061106c57506000809054906101000a900473ffffffffffffffffffffffffffffffffffffffff1673ffffffffffffffffffffffffffffffffffffffff163373ffffffffffffffffffffffffffffffffffffffff16145b61107557600080fd5b80600360008373ffffffffffffffffffffffffffffffffffffffff1673ffffffffffffffffffffffffffffffffffffffff16815260200190815260200160002060000160006101000a81548173ffffffffffffffffffffffffffffffffffffffff021916908373ffffffffffffffffffffffffffffffffffffffff1602179055506004600360008373ffffffffffffffffffffffffffffffffffffffff1673ffffffffffffffffffffffffffffffffffffffff168152602001908152602001600020908060018154018082558091505090600182039060005260206000209060030201600090919290919091506000820160009054906101000a900473ffffffffffffffffffffffffffffffffffffffff168160000160006101000a81548173ffffffffffffffffffffffffffffffffffffffff021916908373ffffffffffffffffffffffffffffffffffffffff16021790555060018201816001019080546111df929190611546565b5060028201816002019080546111f6929190611598565b5050505050565b6004818154811061120a57fe5b90600052602060002090600302016000915090508060000160009054906101000a900473ffffffffffffffffffffffffffffffffffffffff16905081565b600060603373ffffffffffffffffffffffffffffffffffffffff16600360003373ffffffffffffffffffffffffffffffffffffffff1673ffffffffffffffffffffffffffffffffffffffff16815260200190815260200160002060000160009054906101000a900473ffffffffffffffffffffffffffffffffffffffff1673ffffffffffffffffffffffffffffffffffffffff16148061133457506000809054906101000a900473ffffffffffffffffffffffffffffffffffffffff1673ffffffffffffffffffffffffffffffffffffffff163373ffffffffffffffffffffffffffffffffffffffff16145b61133d57600080fd5b6002838154811061134a57fe5b906000526020600020906002020160000160009054906101000a900473ffffffffffffffffffffffffffffffffffffffff166002848154811061138957fe5b9060005260206000209060020201600101808054600181600116156101000203166002900480601f01602080910402602001604051908101604052809291908181526020018280546001816001161561010002031660029004801561142f5780601f106114045761010080835404028352916020019161142f565b820191906000526020600020905b81548152906001019060200180831161141257829003601f168201915b5050505050905091509150915091565b828054600181600116156101000203166002900490600052602060002090601f016020900481019282601f1061148057805160ff19168380011785556114ae565b828001600101855582156114ae579182015b828111156114ad578251825591602001919060010190611492565b5b5090506114bb9190611608565b5090565b828054600181600116156101000203166002900490600052602060002090601f016020900481019282601f106114f85780548555611535565b8280016001018555821561153557600052602060002091601f016020900482015b82811115611534578254825591600101919060010190611519565b5b5090506115429190611608565b5090565b8280548282559060005260206000209081019282156115875760005260206000209182015b8281111561158657825482559160010191906001019061156b565b5b509050611594919061162d565b5090565b8280548282559060005260206000209081019282156115f75760005260206000209182015b828111156115f657828290805460018160011615610100020316600290046115e69291906114bf565b50916001019190600101906115bd565b5b5090506116049190611670565b5090565b61162a91905b8082111561162657600081600090555060010161160e565b5090565b90565b61166d91905b8082111561166957600081816101000a81549073ffffffffffffffffffffffffffffffffffffffff021916905550600101611633565b5090565b90565b61169991905b80821115611695576000818161168c919061169c565b50600101611676565b5090565b90565b50805460018160011615610100020316600290046000825580601f106116c257506116e1565b601f0160209004906000526020600020908101906116e09190611608565b5b5056fea265627a7a723158209d783c2393ca57de7801eb5baf440873fce99322895edd8b3d00fb604c6195db64736f6c63430005100032",
  "source": "pragma solidity >=0.4.22 <0.8.0;\n\n/**\n * @title WhiteList\n * @dev Vote white node\n */\n\ncontract WhiteList {\n    \n    address owner;\n\n    /*Nodi che richeidono di diventare signer */\n    struct WhiteNode {\n        address node;\n        string description;\n    }\n    \n    /**Attuali signer */\n    struct Signer {\n        address signer;\n        address[] whiteNodesVoted;\n        string[] vote;\n    }\n\n    mapping(address => WhiteNode) whitenodes;\n    WhiteNode[] public whitelist;\n    \n    mapping(address => Signer) signers;\n    Signer[] public signersList;\n    \n    modifier onlyOwner {\n        require(msg.sender == owner);\n        _;\n    }\n    \n    modifier onlySigner {\n        require(signers[msg.sender].signer == msg.sender || msg.sender == owner);\n        _;\n    }\n    \n    constructor() public {\n        owner = msg.sender;\n    }\n    \n    event newRequestAdded(address nodeAddress, string description);\n    \n\n    /**Aggiunge alla lista di chi vuole diventare signer, solo l'owner puo */\n    /** \n     * @dev Add a node in pending\n     * @param _address of node to add into whitelist\n     */ \n    function addNode(address _address, string memory _description) public onlyOwner {\n        whitenodes[_address].node = _address;\n        whitenodes[_address].description = _description;\n        whitelist.push(whitenodes[_address]);\n        emit newRequestAdded(_address, _description);\n    }\n\n    /** \n     * @dev Return whitelist's length\n     */\n    function getWhiteListLength() public view returns (uint){\n        return whitelist.length;\n    }\n    \n    /** \n     * @dev Return white node in position i\n     */\n    function getWhiteNode(uint i) public onlySigner view returns (address, string memory) {\n        return (whitelist[i].node, whitelist[i].description);\n    }\n    \n     /** \n     * @dev Add a signer into contract\n     * @param _address of node to add into signers\n     */ \n    function addSigner(address _address) public onlySigner {\n        signers[_address].signer = _address;\n        signersList.push(signers[_address]);\n    }\n    \n\n\n    /** \n     * @dev Add the node that the signer voted\n     * @param _address of node to add into vote list of signer\n     * @param _vote description of the whitenode\n     */ \n    function vote(address _address, string memory _vote) public onlySigner {\n        signers[msg.sender].whiteNodesVoted.push(_address);\n        signers[msg.sender].vote.push(_vote);\n    }\n    \n    /** \n     * @dev Return a signer vote in index i\n     */ \n    function getVotedNode(uint i) public onlySigner view returns (address, string memory) {\n        return (signers[msg.sender].whiteNodesVoted[i], signers[msg.sender].vote[i]);\n    }\n    \n    /** \n     * @dev Return length of signer's vote list\n     */ \n    function getVotedListLength() public onlySigner view returns (uint) {\n        return signers[msg.sender].whiteNodesVoted.length;\n    }\n}",
  "sourcePath": "C:/Users/andrea.mattone/AppData/Local/Packages/CanonicalGroupLimited.UbuntuonWindows_79rhkp1fndgsc/LocalState/rootfs/home/andrea/myEthDapp/contracts/WhiteList.sol",
  "compiler": {
    "name": "solc",
    "version": "0.5.16+commit.9c3226ce.Emscripten.clang"
  },
  "schemaVersion": "3.4.0",
  "updatedAt": "2021-05-11T17:31:36.277Z",
  "devdoc": {
    "details": "Vote white node",
    "methods": {
      "addNode(address,string)": {
        "details": "Add a node in pending",
        "params": {
          "_address": "of node to add into whitelist"
        }
      },
      "addSigner(address)": {
        "details": "Add a signer into contract",
        "params": {
          "_address": "of node to add into signers"
        }
      },
      "getVotedListLength()": {
        "details": "Return length of signer's vote list"
      },
      "getVotedNode(uint256)": {
        "details": "Return a signer vote in index i"
      },
      "getWhiteListLength()": {
        "details": "Return whitelist's length"
      },
      "getWhiteNode(uint256)": {
        "details": "Return white node in position i"
      },
      "vote(address,string)": {
        "details": "Add the node that the signer voted",
        "params": {
          "_address": "of node to add into vote list of signer",
          "_vote": "description of the whitenode"
        }
      }
    },
    "title": "WhiteList"
  },
  "userdoc": {
    "methods": {}
  }
}